{
  "contractName": "OctoDemocracy",
  "abi": [
    {
      "constant": true,
      "inputs": [
        {
          "name": "",
          "type": "uint256"
        }
      ],
      "name": "proposals",
      "outputs": [
        {
          "name": "description",
          "type": "string"
        },
        {
          "name": "voteCount",
          "type": "uint256"
        }
      ],
      "payable": false,
      "stateMutability": "view",
      "type": "function"
    },
    {
      "constant": true,
      "inputs": [],
      "name": "currentVotingStatus",
      "outputs": [
        {
          "name": "",
          "type": "uint8"
        }
      ],
      "payable": false,
      "stateMutability": "view",
      "type": "function"
    },
    {
      "constant": true,
      "inputs": [],
      "name": "owner",
      "outputs": [
        {
          "name": "",
          "type": "address"
        }
      ],
      "payable": false,
      "stateMutability": "view",
      "type": "function"
    },
    {
      "constant": true,
      "inputs": [
        {
          "name": "",
          "type": "address"
        }
      ],
      "name": "voters",
      "outputs": [
        {
          "name": "isAllowedToVote",
          "type": "bool"
        },
        {
          "name": "hasVoted",
          "type": "bool"
        },
        {
          "name": "votedProposalIndex",
          "type": "uint256"
        }
      ],
      "payable": false,
      "stateMutability": "view",
      "type": "function"
    },
    {
      "inputs": [],
      "payable": false,
      "stateMutability": "nonpayable",
      "type": "constructor"
    },
    {
      "anonymous": false,
      "inputs": [
        {
          "indexed": false,
          "name": "registeredVoter",
          "type": "address"
        }
      ],
      "name": "VoterRegisteredEvent",
      "type": "event"
    },
    {
      "anonymous": false,
      "inputs": [],
      "name": "ProposalRegistrationStartedEvent",
      "type": "event"
    },
    {
      "anonymous": false,
      "inputs": [
        {
          "indexed": false,
          "name": "proposalIndex",
          "type": "uint256"
        }
      ],
      "name": "ProposalRegisteredEvent",
      "type": "event"
    },
    {
      "anonymous": false,
      "inputs": [],
      "name": "ProposalRegistrationEndedEvent",
      "type": "event"
    },
    {
      "anonymous": false,
      "inputs": [],
      "name": "VotingStartedEvent",
      "type": "event"
    },
    {
      "anonymous": false,
      "inputs": [
        {
          "indexed": false,
          "name": "voter",
          "type": "address"
        },
        {
          "indexed": false,
          "name": "proposalIndex",
          "type": "uint256"
        }
      ],
      "name": "VotedEvent",
      "type": "event"
    },
    {
      "anonymous": false,
      "inputs": [],
      "name": "VotingEndedEvent",
      "type": "event"
    },
    {
      "anonymous": false,
      "inputs": [],
      "name": "VotesTalliedEvent",
      "type": "event"
    },
    {
      "anonymous": false,
      "inputs": [
        {
          "indexed": false,
          "name": "previousStatus",
          "type": "uint8"
        },
        {
          "indexed": false,
          "name": "newStatus",
          "type": "uint8"
        }
      ],
      "name": "OctoStatusChangedEvent",
      "type": "event"
    },
    {
      "constant": false,
      "inputs": [
        {
          "name": "_voterAddress",
          "type": "address"
        }
      ],
      "name": "registerVoter",
      "outputs": [],
      "payable": false,
      "stateMutability": "nonpayable",
      "type": "function"
    },
    {
      "constant": false,
      "inputs": [],
      "name": "startProposalRegistration",
      "outputs": [],
      "payable": false,
      "stateMutability": "nonpayable",
      "type": "function"
    },
    {
      "constant": false,
      "inputs": [
        {
          "name": "proposalDescription",
          "type": "string"
        }
      ],
      "name": "registerProposal",
      "outputs": [],
      "payable": false,
      "stateMutability": "nonpayable",
      "type": "function"
    },
    {
      "constant": false,
      "inputs": [],
      "name": "endProposalRegistration",
      "outputs": [],
      "payable": false,
      "stateMutability": "nonpayable",
      "type": "function"
    },
    {
      "constant": false,
      "inputs": [],
      "name": "startVoting",
      "outputs": [],
      "payable": false,
      "stateMutability": "nonpayable",
      "type": "function"
    },
    {
      "constant": false,
      "inputs": [
        {
          "name": "proposalIndex",
          "type": "uint256"
        }
      ],
      "name": "vote",
      "outputs": [],
      "payable": false,
      "stateMutability": "nonpayable",
      "type": "function"
    },
    {
      "constant": false,
      "inputs": [],
      "name": "endVoting",
      "outputs": [],
      "payable": false,
      "stateMutability": "nonpayable",
      "type": "function"
    },
    {
      "constant": false,
      "inputs": [],
      "name": "tallyVotes",
      "outputs": [],
      "payable": false,
      "stateMutability": "nonpayable",
      "type": "function"
    },
    {
      "constant": true,
      "inputs": [],
      "name": "getProposalsNumber",
      "outputs": [
        {
          "name": "",
          "type": "uint256"
        }
      ],
      "payable": false,
      "stateMutability": "view",
      "type": "function"
    },
    {
      "constant": true,
      "inputs": [
        {
          "name": "index",
          "type": "uint256"
        }
      ],
      "name": "getProposalDescription",
      "outputs": [
        {
          "name": "",
          "type": "string"
        }
      ],
      "payable": false,
      "stateMutability": "view",
      "type": "function"
    },
    {
      "constant": true,
      "inputs": [],
      "name": "getWinningProposalIndex",
      "outputs": [
        {
          "name": "",
          "type": "uint256"
        }
      ],
      "payable": false,
      "stateMutability": "view",
      "type": "function"
    },
    {
      "constant": true,
      "inputs": [],
      "name": "getWinningProposalDescription",
      "outputs": [
        {
          "name": "",
          "type": "string"
        }
      ],
      "payable": false,
      "stateMutability": "view",
      "type": "function"
    },
    {
      "constant": true,
      "inputs": [],
      "name": "getWinningProposalVotes",
      "outputs": [
        {
          "name": "",
          "type": "uint256"
        }
      ],
      "payable": false,
      "stateMutability": "view",
      "type": "function"
    },
    {
      "constant": true,
      "inputs": [
        {
          "name": "_voterAddress",
          "type": "address"
        }
      ],
      "name": "isVoterAllowed",
      "outputs": [
        {
          "name": "",
          "type": "bool"
        }
      ],
      "payable": false,
      "stateMutability": "view",
      "type": "function"
    },
    {
      "constant": true,
      "inputs": [
        {
          "name": "_address",
          "type": "address"
        }
      ],
      "name": "isContractOwner",
      "outputs": [
        {
          "name": "",
          "type": "bool"
        }
      ],
      "payable": false,
      "stateMutability": "view",
      "type": "function"
    },
    {
      "constant": true,
      "inputs": [],
      "name": "getCurrentVotingStatus",
      "outputs": [
        {
          "name": "",
          "type": "uint8"
        }
      ],
      "payable": false,
      "stateMutability": "view",
      "type": "function"
    }
  ],
  "bytecode": "0x608060405234801561001057600080fd5b50336000806101000a81548173ffffffffffffffffffffffffffffffffffffffff021916908373ffffffffffffffffffffffffffffffffffffffff16021790555060008060146101000a81548160ff0219169083600581111561006f57fe5b02179055506124ce806100836000396000f300608060405260043610610111576000357c0100000000000000000000000000000000000000000000000000000000900463ffffffff1680620f987f146101165780630121b93f1461014f578063013cf08b1461017c57806302249197146102295780630c6d11e7146102845780630f7e2838146102bd5780631ec6b60a146102d4578063229acb17146102eb5780632f95355b14610391578063378a2178146103fa57806337d05ddc1461041157806338db6dd3146104a157806341b1b046146104e4578063674584171461050f5780638da5cb5b1461053a578063a3ec138d14610591578063c3403ddf146105fe578063de11768814610615578063e85a8f2a14610670578063f6a264b814610687575b600080fd5b34801561012257600080fd5b5061012b6106b2565b6040518082600581111561013b57fe5b60ff16815260200191505060405180910390f35b34801561015b57600080fd5b5061017a600480360381019080803590602001909291905050506106c8565b005b34801561018857600080fd5b506101a760048036038101908080359060200190929190505050610a78565b6040518080602001838152602001828103825284818151815260200191508051906020019080838360005b838110156101ed5780820151818401526020810190506101d2565b50505050905090810190601f16801561021a5780820380516001836020036101000a031916815260200191505b50935050505060405180910390f35b34801561023557600080fd5b5061026a600480360381019080803573ffffffffffffffffffffffffffffffffffffffff169060200190929190505050610b43565b604051808215151515815260200191505060405180910390f35b34801561029057600080fd5b50610299610b9c565b604051808260058111156102a957fe5b60ff16815260200191505060405180910390f35b3480156102c957600080fd5b506102d2610baf565b005b3480156102e057600080fd5b506102e9610e18565b005b3480156102f757600080fd5b5061031660048036038101908080359060200190929190505050611082565b6040518080602001828103825283818151815260200191508051906020019080838360005b8381101561035657808201518184015260208101905061033b565b50505050905090810190601f1680156103835780820380516001836020036101000a031916815260200191505b509250505060405180910390f35b34801561039d57600080fd5b506103f8600480360381019080803590602001908201803590602001908080601f01602080910402602001604051908101604052809392919081815260200183838082843782019150505050505091929192905050506111e6565b005b34801561040657600080fd5b5061040f611442565b005b34801561041d57600080fd5b50610426611723565b6040518080602001828103825283818151815260200191508051906020019080838360005b8381101561046657808201518184015260208101905061044b565b50505050905090810190601f1680156104935780820380516001836020036101000a031916815260200191505b509250505060405180910390f35b3480156104ad57600080fd5b506104e2600480360381019080803573ffffffffffffffffffffffffffffffffffffffff1690602001909291905050506118a7565b005b3480156104f057600080fd5b506104f9611ca2565b6040518082815260200191505060405180910390f35b34801561051b57600080fd5b50610524611caf565b6040518082815260200191505060405180910390f35b34801561054657600080fd5b5061054f611d7b565b604051808273ffffffffffffffffffffffffffffffffffffffff1673ffffffffffffffffffffffffffffffffffffffff16815260200191505060405180910390f35b34801561059d57600080fd5b506105d2600480360381019080803573ffffffffffffffffffffffffffffffffffffffff169060200190929190505050611da0565b604051808415151515815260200183151515158152602001828152602001935050505060405180910390f35b34801561060a57600080fd5b50610613611de4565b005b34801561062157600080fd5b50610656600480360381019080803573ffffffffffffffffffffffffffffffffffffffff16906020019092919050505061204e565b604051808215151515815260200191505060405180910390f35b34801561067c57600080fd5b506106856120a7565b005b34801561069357600080fd5b5061069c612311565b6040518082815260200191505060405180910390f35b60008060149054906101000a900460ff16905090565b600160003373ffffffffffffffffffffffffffffffffffffffff1673ffffffffffffffffffffffffffffffffffffffff16815260200190815260200160002060000160009054906101000a900460ff1615156107b2576040517f08c379a000000000000000000000000000000000000000000000000000000000815260040180806020018281038252602f8152602001807f63616c6c6572206f6620746869732066756e6374696f6e206d7573742062652081526020017f616c6c6f77656420746f20766f7465000000000000000000000000000000000081525060400191505060405180910390fd5b600360058111156107bf57fe5b600060149054906101000a900460ff1660058111156107da57fe5b141515610875576040517f08c379a00000000000000000000000000000000000000000000000000000000081526004018080602001828103825260348152602001807f66756e6374696f6e2063616e2062652063616c6c6564206f6e6c79206166746581526020017f7220766f74696e6720686173207374617274656400000000000000000000000081525060400191505060405180910390fd5b600160003373ffffffffffffffffffffffffffffffffffffffff1673ffffffffffffffffffffffffffffffffffffffff16815260200190815260200160002060000160019054906101000a900460ff1615151561093a576040517f08c379a000000000000000000000000000000000000000000000000000000000815260040180806020018281038252601c8152602001807f7468652063616c6c65722068617320616c726561647920766f7465640000000081525060200191505060405180910390fd5b60018060003373ffffffffffffffffffffffffffffffffffffffff1673ffffffffffffffffffffffffffffffffffffffff16815260200190815260200160002060000160016101000a81548160ff02191690831515021790555080600160003373ffffffffffffffffffffffffffffffffffffffff1673ffffffffffffffffffffffffffffffffffffffff1681526020019081526020016000206001018190555060016002828154811015156109ec57fe5b9060005260206000209060020201600101600082825401925050819055507f0902475a854b82199b4f5d6b81327ec4c4ec077ce0356a106ddc2748c5285ed33382604051808373ffffffffffffffffffffffffffffffffffffffff1673ffffffffffffffffffffffffffffffffffffffff1681526020018281526020019250505060405180910390a150565b600281815481101515610a8757fe5b9060005260206000209060020201600091509050806000018054600181600116156101000203166002900480601f016020809104026020016040519081016040528092919081815260200182805460018160011615610100020316600290048015610b335780601f10610b0857610100808354040283529160200191610b33565b820191906000526020600020905b815481529060010190602001808311610b1657829003601f168201915b5050505050908060010154905082565b6000600160008373ffffffffffffffffffffffffffffffffffffffff1673ffffffffffffffffffffffffffffffffffffffff16815260200190815260200160002060000160009054906101000a900460ff169050919050565b600060149054906101000a900460ff1681565b6000809054906101000a900473ffffffffffffffffffffffffffffffffffffffff1673ffffffffffffffffffffffffffffffffffffffff163373ffffffffffffffffffffffffffffffffffffffff16141515610c99576040517f08c379a000000000000000000000000000000000000000000000000000000000815260040180806020018281038252602e8152602001807f63616c6c6572206f6620746869732066756e6374696f6e206d7573742062652081526020017f636f6e7472616374206f776e657200000000000000000000000000000000000081525060400191505060405180910390fd5b60006005811115610ca657fe5b600060149054906101000a900460ff166005811115610cc157fe5b141515610d5c576040517f08c379a00000000000000000000000000000000000000000000000000000000081526004018080602001828103825260358152602001807f66756e6374696f6e2063616e2062652063616c6c6564206f6e6c79206475726981526020017f6e6720766f74657273207265676973746572696e67000000000000000000000081525060400191505060405180910390fd5b6001600060146101000a81548160ff02191690836005811115610d7b57fe5b02179055507fb0261438aa51a9d912dc23b62ede1a070cc338a3b2e24074cf619c3b85afbc1060405160405180910390a17f2e773e7bc560234640e52791269cb628b544ed07fbe4dc19a3f7ead5a673c3f360008060149054906101000a900460ff1660405180836005811115610dee57fe5b60ff168152602001826005811115610e0257fe5b60ff1681526020019250505060405180910390a1565b6000809054906101000a900473ffffffffffffffffffffffffffffffffffffffff1673ffffffffffffffffffffffffffffffffffffffff163373ffffffffffffffffffffffffffffffffffffffff16141515610f02576040517f08c379a000000000000000000000000000000000000000000000000000000000815260040180806020018281038252602e8152602001807f63616c6c6572206f6620746869732066756e6374696f6e206d7573742062652081526020017f636f6e7472616374206f776e657200000000000000000000000000000000000081525060400191505060405180910390fd5b60026005811115610f0f57fe5b600060149054906101000a900460ff166005811115610f2a57fe5b141515610fc5576040517f08c379a000000000000000000000000000000000000000000000000000000000815260040180806020018281038252603a8152602001807f66756e6374696f6e2063616e206f6e6c792062652063616c6c6564206166746581526020017f722070726f706f73616c2073746167652068617320656e64656400000000000081525060400191505060405180910390fd5b6003600060146101000a81548160ff02191690836005811115610fe457fe5b02179055507f83c559f21ea96cd0ec02970a88c1f948f8c7340dc70ec8bcf4fef15b5c0ea1f560405160405180910390a17f2e773e7bc560234640e52791269cb628b544ed07fbe4dc19a3f7ead5a673c3f36002600060149054906101000a900460ff166040518083600581111561105857fe5b60ff16815260200182600581111561106c57fe5b60ff1681526020019250505060405180910390a1565b606060028054905082101515611126576040517f08c379a000000000000000000000000000000000000000000000000000000000815260040180806020018281038252602b8152602001807f746865207265717565737465642070726f706f73616c20696e64657820646f6581526020017f73206e6f7420657869737400000000000000000000000000000000000000000081525060400191505060405180910390fd5b60028281548110151561113557fe5b90600052602060002090600202016000018054600181600116156101000203166002900480601f0160208091040260200160405190810160405280929190818152602001828054600181600116156101000203166002900480156111da5780601f106111af576101008083540402835291602001916111da565b820191906000526020600020905b8154815290600101906020018083116111bd57829003601f168201915b50505050509050919050565b600160003373ffffffffffffffffffffffffffffffffffffffff1673ffffffffffffffffffffffffffffffffffffffff16815260200190815260200160002060000160009054906101000a900460ff1615156112d0576040517f08c379a000000000000000000000000000000000000000000000000000000000815260040180806020018281038252602f8152602001807f63616c6c6572206f6620746869732066756e6374696f6e206d7573742062652081526020017f616c6c6f77656420746f20766f7465000000000000000000000000000000000081525060400191505060405180910390fd5b600160058111156112dd57fe5b600060149054906101000a900460ff1660058111156112f857fe5b141515611393576040517f08c379a00000000000000000000000000000000000000000000000000000000081526004018080602001828103825260378152602001807f66756e6374696f6e2063616e2062652063616c6c6564206f6e6c79206475726981526020017f6e672070726f706f73616c207265676973746572696e6700000000000000000081525060400191505060405180910390fd5b6002604080519081016040528083815260200160008152509080600181540180825580915050906001820390600052602060002090600202016000909192909190915060008201518160000190805190602001906113f29291906123fd565b50602082015181600101555050507fdcd2e8cd237900037efa515c36a3caa6812766647c16535dd5fc3c6fd641154c6001600280549050036040518082815260200191505060405180910390a150565b60008060008060009054906101000a900473ffffffffffffffffffffffffffffffffffffffff1673ffffffffffffffffffffffffffffffffffffffff163373ffffffffffffffffffffffffffffffffffffffff16141515611531576040517f08c379a000000000000000000000000000000000000000000000000000000000815260040180806020018281038252602e8152602001807f63616c6c6572206f6620746869732066756e6374696f6e206d7573742062652081526020017f636f6e7472616374206f776e657200000000000000000000000000000000000081525060400191505060405180910390fd5b6004600581111561153e57fe5b600060149054906101000a900460ff16600581111561155957fe5b1415156115f4576040517f08c379a00000000000000000000000000000000000000000000000000000000081526004018080602001828103825260328152602001807f66756e6374696f6e2063616e206f6e6c792062652063616c6c6564206166746581526020017f7220766f74696e672068617320656e646564000000000000000000000000000081525060400191505060405180910390fd5b6000925060009150600090505b60028054905081101561166a578260028281548110151561161e57fe5b906000526020600020906002020160010154111561165d5760028181548110151561164557fe5b90600052602060002090600202016001015492508091505b8080600101915050611601565b816003819055506005600060146101000a81548160ff0219169083600581111561169057fe5b02179055507fa1f82a14ea162408785ef8969f7cf08b2bb72b081f8d4e2eda49846e52f439c660405160405180910390a17f2e773e7bc560234640e52791269cb628b544ed07fbe4dc19a3f7ead5a673c3f360046005604051808360058111156116f657fe5b60ff16815260200182600581111561170a57fe5b60ff1681526020019250505060405180910390a1505050565b606060058081111561173157fe5b600060149054906101000a900460ff16600581111561174c57fe5b1415156117e7576040517f08c379a00000000000000000000000000000000000000000000000000000000081526004018080602001828103825260338152602001807f66756e6374696f6e2063616e2062652063616c6c6564206f6e6c79206166746581526020017f7220766f746573206172652074616c6c6965640000000000000000000000000081525060400191505060405180910390fd5b60026003548154811015156117f857fe5b90600052602060002090600202016000018054600181600116156101000203166002900480601f01602080910402602001604051908101604052809291908181526020018280546001816001161561010002031660029004801561189d5780601f106118725761010080835404028352916020019161189d565b820191906000526020600020905b81548152906001019060200180831161188057829003601f168201915b5050505050905090565b6000809054906101000a900473ffffffffffffffffffffffffffffffffffffffff1673ffffffffffffffffffffffffffffffffffffffff163373ffffffffffffffffffffffffffffffffffffffff16141515611991576040517f08c379a000000000000000000000000000000000000000000000000000000000815260040180806020018281038252602e8152602001807f63616c6c6572206f6620746869732066756e6374696f6e206d7573742062652081526020017f636f6e7472616374206f776e657200000000000000000000000000000000000081525060400191505060405180910390fd5b6000600581111561199e57fe5b600060149054906101000a900460ff1660058111156119b957fe5b141515611a54576040517f08c379a00000000000000000000000000000000000000000000000000000000081526004018080602001828103825260358152602001807f66756e6374696f6e2063616e2062652063616c6c6564206f6e6c79206475726981526020017f6e6720766f74657273207265676973746572696e67000000000000000000000081525060400191505060405180910390fd5b600160008273ffffffffffffffffffffffffffffffffffffffff1673ffffffffffffffffffffffffffffffffffffffff16815260200190815260200160002060000160009054906101000a900460ff16151515611b3f576040517f08c379a000000000000000000000000000000000000000000000000000000000815260040180806020018281038252602c8152602001807f7468697320766f7465722077617320616c72656164792072656769737465726581526020017f6420666f7220766f74696e67000000000000000000000000000000000000000081525060400191505060405180910390fd5b60018060008373ffffffffffffffffffffffffffffffffffffffff1673ffffffffffffffffffffffffffffffffffffffff16815260200190815260200160002060000160006101000a81548160ff0219169083151502179055506000600160008373ffffffffffffffffffffffffffffffffffffffff1673ffffffffffffffffffffffffffffffffffffffff16815260200190815260200160002060000160016101000a81548160ff0219169083151502179055506000600160008373ffffffffffffffffffffffffffffffffffffffff1673ffffffffffffffffffffffffffffffffffffffff168152602001908152602001600020600101819055507f42b360c89ba65a59ac7fec024a7bbb2c21d84b5abe5b5178ba0d7e34653a813081604051808273ffffffffffffffffffffffffffffffffffffffff1673ffffffffffffffffffffffffffffffffffffffff16815260200191505060405180910390a150565b6000600280549050905090565b6000600580811115611cbd57fe5b600060149054906101000a900460ff166005811115611cd857fe5b141515611d73576040517f08c379a00000000000000000000000000000000000000000000000000000000081526004018080602001828103825260338152602001807f66756e6374696f6e2063616e2062652063616c6c6564206f6e6c79206166746581526020017f7220766f746573206172652074616c6c6965640000000000000000000000000081525060400191505060405180910390fd5b600354905090565b6000809054906101000a900473ffffffffffffffffffffffffffffffffffffffff1681565b60016020528060005260406000206000915090508060000160009054906101000a900460ff16908060000160019054906101000a900460ff16908060010154905083565b6000809054906101000a900473ffffffffffffffffffffffffffffffffffffffff1673ffffffffffffffffffffffffffffffffffffffff163373ffffffffffffffffffffffffffffffffffffffff16141515611ece576040517f08c379a000000000000000000000000000000000000000000000000000000000815260040180806020018281038252602e8152602001807f63616c6c6572206f6620746869732066756e6374696f6e206d7573742062652081526020017f636f6e7472616374206f776e657200000000000000000000000000000000000081525060400191505060405180910390fd5b60036005811115611edb57fe5b600060149054906101000a900460ff166005811115611ef657fe5b141515611f91576040517f08c379a00000000000000000000000000000000000000000000000000000000081526004018080602001828103825260348152602001807f66756e6374696f6e2063616e2062652063616c6c6564206f6e6c79206166746581526020017f7220766f74696e6720686173207374617274656400000000000000000000000081525060400191505060405180910390fd5b6004600060146101000a81548160ff02191690836005811115611fb057fe5b02179055507ff99f999fb8972b9f9d929cc3e300189e8750702869f26fa86346de0646cc6c0460405160405180910390a17f2e773e7bc560234640e52791269cb628b544ed07fbe4dc19a3f7ead5a673c3f36003600060149054906101000a900460ff166040518083600581111561202457fe5b60ff16815260200182600581111561203857fe5b60ff1681526020019250505060405180910390a1565b60008173ffffffffffffffffffffffffffffffffffffffff166000809054906101000a900473ffffffffffffffffffffffffffffffffffffffff1673ffffffffffffffffffffffffffffffffffffffff16149050919050565b6000809054906101000a900473ffffffffffffffffffffffffffffffffffffffff1673ffffffffffffffffffffffffffffffffffffffff163373ffffffffffffffffffffffffffffffffffffffff16141515612191576040517f08c379a000000000000000000000000000000000000000000000000000000000815260040180806020018281038252602e8152602001807f63616c6c6572206f6620746869732066756e6374696f6e206d7573742062652081526020017f636f6e7472616374206f776e657200000000000000000000000000000000000081525060400191505060405180910390fd5b6001600581111561219e57fe5b600060149054906101000a900460ff1660058111156121b957fe5b141515612254576040517f08c379a00000000000000000000000000000000000000000000000000000000081526004018080602001828103825260378152602001807f66756e6374696f6e2063616e2062652063616c6c6564206f6e6c79206475726981526020017f6e672070726f706f73616c207265676973746572696e6700000000000000000081525060400191505060405180910390fd5b6002600060146101000a81548160ff0219169083600581111561227357fe5b02179055507f81b375942be6daf57741f1a557c5b3eeb414ded425aa5489c9a3329c384a7cf460405160405180910390a17f2e773e7bc560234640e52791269cb628b544ed07fbe4dc19a3f7ead5a673c3f36001600060149054906101000a900460ff16604051808360058111156122e757fe5b60ff1681526020018260058111156122fb57fe5b60ff1681526020019250505060405180910390a1565b600060058081111561231f57fe5b600060149054906101000a900460ff16600581111561233a57fe5b1415156123d5576040517f08c379a00000000000000000000000000000000000000000000000000000000081526004018080602001828103825260338152602001807f66756e6374696f6e2063616e2062652063616c6c6564206f6e6c79206166746581526020017f7220766f746573206172652074616c6c6965640000000000000000000000000081525060400191505060405180910390fd5b60026003548154811015156123e657fe5b906000526020600020906002020160010154905090565b828054600181600116156101000203166002900490600052602060002090601f016020900481019282601f1061243e57805160ff191683800117855561246c565b8280016001018555821561246c579182015b8281111561246b578251825591602001919060010190612450565b5b509050612479919061247d565b5090565b61249f91905b8082111561249b576000816000905550600101612483565b5090565b905600a165627a7a723058204a65c28e032d4f3e5a2dcae4ae5d4e5d8265d0eb1002629ad443d9b1934c7e360029",
  "source": "pragma solidity ^0.4.24;\r\ncontract OctoDemocracy {\r\n    struct Proposal {\r\n        string description;\r\n        uint voteCount;\r\n    }\r\n\r\n    struct Voter {\r\n        bool isAllowedToVote;\r\n        bool hasVoted;\r\n        uint votedProposalIndex;\r\n    }\r\n\r\n    enum OctoStatus {\r\n        OwnerRegisteringVoters,\r\n        ProposalRegistrationStart,\r\n        ProposalRegistrationEnd,\r\n        VotingStart,\r\n        VotingEnd,\r\n        VotesTallied\r\n    }\r\n\r\n    event VoterRegisteredEvent(address registeredVoter);\r\n    event ProposalRegistrationStartedEvent();\r\n    event ProposalRegisteredEvent(uint proposalIndex);\r\n    event ProposalRegistrationEndedEvent();\r\n    event VotingStartedEvent();\r\n    event VotedEvent(address voter, uint proposalIndex);\r\n    event VotingEndedEvent();\r\n    event VotesTalliedEvent();\r\n\r\n    event OctoStatusChangedEvent(OctoStatus previousStatus, OctoStatus newStatus);\r\n\r\n    address public owner;\r\n    OctoStatus public currentVotingStatus;\r\n    mapping(address => Voter) public voters;\r\n    Proposal[] public proposals;\r\n    uint private winningProposalIndex;     //should only be exposed after votes are tallied\r\n\r\n    constructor() public {\r\n        owner = msg.sender;\r\n        currentVotingStatus = OctoStatus.OwnerRegisteringVoters;\r\n    }\r\n\r\n    modifier onlyOwner() {\r\n        require(msg.sender == owner, \"caller of this function must be contract owner\");\r\n        _;      //merge wildcard; merge function code with modifier code\r\n    }\r\n\r\n    modifier onlyAllowedVoter() {\r\n        require(voters[msg.sender].isAllowedToVote, \"caller of this function must be allowed to vote\");\r\n        _;\r\n    }\r\n\r\n    modifier onlyDuringVotersRegistering() {\r\n        require(currentVotingStatus == OctoStatus.OwnerRegisteringVoters, \"function can be called only during voters registering\");\r\n        _;\r\n    }\r\n\r\n    modifier onlyDuringProposalRegistering() {\r\n        require(currentVotingStatus == OctoStatus.ProposalRegistrationStart, \"function can be called only during proposal registering\");\r\n        _;\r\n    }\r\n    \r\n    modifier onlyDuringVotingTime() {\r\n        require(currentVotingStatus == OctoStatus.VotingStart, \"function can be called only after voting has started\");\r\n        _;\r\n    }\r\n\r\n     modifier onlyAfterVotesAreTallied() {\r\n         require(currentVotingStatus == OctoStatus.VotesTallied, \"function can be called only after votes are tallied\");\r\n         _;\r\n     }\r\n\r\n    function registerVoter(address _voterAddress) public onlyOwner onlyDuringVotersRegistering {\r\n        require(!voters[_voterAddress].isAllowedToVote, \"this voter was already registered for voting\");\r\n        voters[_voterAddress].isAllowedToVote = true;\r\n        voters[_voterAddress].hasVoted = false;\r\n        voters[_voterAddress].votedProposalIndex = 0;\r\n\r\n        emit VoterRegisteredEvent(_voterAddress);\r\n    }\r\n\r\n    function startProposalRegistration() public onlyOwner onlyDuringVotersRegistering {\r\n        currentVotingStatus = OctoStatus.ProposalRegistrationStart;\r\n        emit ProposalRegistrationStartedEvent();\r\n        emit OctoStatusChangedEvent(OctoStatus.OwnerRegisteringVoters, currentVotingStatus);\r\n    }\r\n\r\n    function registerProposal(string proposalDescription) public onlyAllowedVoter onlyDuringProposalRegistering {\r\n        proposals.push(Proposal({\r\n            description: proposalDescription,\r\n            voteCount: 0 \r\n        }));\r\n\r\n        emit ProposalRegisteredEvent(proposals.length - 1);\r\n    }\r\n\r\n    function endProposalRegistration() public onlyOwner onlyDuringProposalRegistering {\r\n        currentVotingStatus = OctoStatus.ProposalRegistrationEnd;\r\n        emit ProposalRegistrationEndedEvent();\r\n        emit OctoStatusChangedEvent(OctoStatus.ProposalRegistrationStart, currentVotingStatus);\r\n    }\r\n\r\n    function startVoting() public onlyOwner {\r\n        require(currentVotingStatus == OctoStatus.ProposalRegistrationEnd, \"function can only be called after proposal stage has ended\");\r\n        currentVotingStatus = OctoStatus.VotingStart;\r\n        emit VotingStartedEvent();\r\n        emit OctoStatusChangedEvent(OctoStatus.ProposalRegistrationEnd, currentVotingStatus);\r\n    }\r\n\r\n    function vote(uint proposalIndex) public onlyAllowedVoter onlyDuringVotingTime {\r\n        require(!voters[msg.sender].hasVoted, \"the caller has already voted\");\r\n        voters[msg.sender].hasVoted = true;\r\n        voters[msg.sender].votedProposalIndex = proposalIndex;\r\n        proposals[proposalIndex].voteCount += 1;\r\n\r\n        emit VotedEvent(msg.sender, proposalIndex);\r\n    }\r\n\r\n    function endVoting() public onlyOwner onlyDuringVotingTime {\r\n        currentVotingStatus = OctoStatus.VotingEnd;\r\n        emit VotingEndedEvent();\r\n        emit OctoStatusChangedEvent(OctoStatus.VotingStart, currentVotingStatus);\r\n    }\r\n\r\n    function tallyVotes() public onlyOwner {\r\n        require(currentVotingStatus == OctoStatus.VotingEnd, \"function can only be called after voting has ended\");\r\n        uint maxVoteCount = 0;\r\n        uint maxProposalIndex = 0;\r\n        for (uint i = 0; i < proposals.length; i++) {\r\n            if (proposals[i].voteCount > maxVoteCount) {\r\n                maxVoteCount = proposals[i].voteCount;\r\n                maxProposalIndex = i;\r\n            }\r\n        }\r\n\r\n        winningProposalIndex = maxProposalIndex;\r\n        currentVotingStatus = OctoStatus.VotesTallied;\r\n\r\n        emit VotesTalliedEvent();\r\n        emit OctoStatusChangedEvent(OctoStatus.VotingEnd, OctoStatus.VotesTallied);\r\n    }\r\n\r\n    function getProposalsNumber() public view returns (uint) {\r\n        return proposals.length;\r\n    }\r\n\r\n    function getProposalDescription(uint index) public view returns (string) {\r\n        require(index < proposals.length, \"the requested proposal index does not exist\");\r\n        return proposals[index].description;\r\n    }\r\n\r\n    function getWinningProposalIndex() public view onlyAfterVotesAreTallied returns (uint) {\r\n        return winningProposalIndex;\r\n    }\r\n\r\n    function getWinningProposalDescription() public view onlyAfterVotesAreTallied returns (string) {\r\n        return proposals[winningProposalIndex].description;\r\n    }\r\n\r\n    function getWinningProposalVotes() public view onlyAfterVotesAreTallied returns (uint) {\r\n        return proposals[winningProposalIndex].voteCount;\r\n    }\r\n\r\n    function isVoterAllowed(address _voterAddress) public view returns (bool) {\r\n        return voters[_voterAddress].isAllowedToVote;\r\n    }\r\n\r\n    function isContractOwner(address _address) public view returns (bool) {\r\n        return owner == _address;\r\n    }\r\n\r\n    function getCurrentVotingStatus() public view returns (OctoStatus) {\r\n        return currentVotingStatus;\r\n    }\r\n}",
  "sourcePath": "C:\\projects\\personal\\octo-democracy\\contracts\\OctoDemocracy.sol",
  "compiler": {
    "name": "solc",
    "version": "0.4.25+commit.59dbf8f1.Emscripten.clang"
  },
  "schemaVersion": "2.0.2",
  "updatedAt": "2021-05-09T04:44:35.573Z"
}